{
  "contractName": "SimpleStake",
  "abi": [
    {
      "inputs": [
        {
          "internalType": "contract SGToken",
          "name": "_token",
          "type": "address"
        }
      ],
      "stateMutability": "nonpayable",
      "type": "constructor"
    },
    {
      "anonymous": false,
      "inputs": [
        {
          "indexed": true,
          "internalType": "address",
          "name": "user",
          "type": "address"
        },
        {
          "indexed": false,
          "internalType": "uint256",
          "name": "etherAmount",
          "type": "uint256"
        },
        {
          "indexed": false,
          "internalType": "uint256",
          "name": "timeStart",
          "type": "uint256"
        }
      ],
      "name": "StakeDeposit",
      "type": "event"
    },
    {
      "anonymous": false,
      "inputs": [
        {
          "indexed": true,
          "internalType": "address",
          "name": "user",
          "type": "address"
        },
        {
          "indexed": false,
          "internalType": "uint256",
          "name": "etherAmount",
          "type": "uint256"
        },
        {
          "indexed": false,
          "internalType": "uint256",
          "name": "depositTime",
          "type": "uint256"
        },
        {
          "indexed": false,
          "internalType": "uint256",
          "name": "interest",
          "type": "uint256"
        }
      ],
      "name": "StakeWithdraw",
      "type": "event"
    },
    {
      "inputs": [
        {
          "internalType": "address",
          "name": "",
          "type": "address"
        }
      ],
      "name": "depositBalanceof",
      "outputs": [
        {
          "internalType": "uint256",
          "name": "",
          "type": "uint256"
        }
      ],
      "stateMutability": "view",
      "type": "function",
      "constant": true
    },
    {
      "inputs": [
        {
          "internalType": "address",
          "name": "",
          "type": "address"
        }
      ],
      "name": "depositStartFrom",
      "outputs": [
        {
          "internalType": "uint256",
          "name": "",
          "type": "uint256"
        }
      ],
      "stateMutability": "view",
      "type": "function",
      "constant": true
    },
    {
      "inputs": [
        {
          "internalType": "address",
          "name": "",
          "type": "address"
        }
      ],
      "name": "isStaked",
      "outputs": [
        {
          "internalType": "bool",
          "name": "",
          "type": "bool"
        }
      ],
      "stateMutability": "view",
      "type": "function",
      "constant": true
    },
    {
      "inputs": [],
      "name": "deposit",
      "outputs": [],
      "stateMutability": "payable",
      "type": "function",
      "payable": true
    },
    {
      "inputs": [],
      "name": "withdraw",
      "outputs": [],
      "stateMutability": "payable",
      "type": "function",
      "payable": true
    }
  ],
  "bytecode": "0x608060405234801561001057600080fd5b506040516109983803806109988339818101604052602081101561003357600080fd5b8101908080519060200190929190505050806000806101000a81548173ffffffffffffffffffffffffffffffffffffffff021916908373ffffffffffffffffffffffffffffffffffffffff16021790555050610904806100946000396000f3fe60806040526004361061004a5760003560e01c80633ccfd60b1461004f5780636177fd1814610059578063c1ecd94d146100c0578063d0e30db014610125578063d21fc2561461012f575b600080fd5b610057610194565b005b34801561006557600080fd5b506100a86004803603602081101561007c57600080fd5b81019080803573ffffffffffffffffffffffffffffffffffffffff169060200190929190505050610574565b60405180821515815260200191505060405180910390f35b3480156100cc57600080fd5b5061010f600480360360208110156100e357600080fd5b81019080803573ffffffffffffffffffffffffffffffffffffffff169060200190929190505050610594565b6040518082815260200191505060405180910390f35b61012d6105ac565b005b34801561013b57600080fd5b5061017e6004803603602081101561015257600080fd5b81019080803573ffffffffffffffffffffffffffffffffffffffff16906020019092919050505061088b565b6040518082815260200191505060405180910390f35b60011515600160003373ffffffffffffffffffffffffffffffffffffffff1673ffffffffffffffffffffffffffffffffffffffff16815260200190815260200160002060009054906101000a900460ff1615151461025a576040517f08c379a000000000000000000000000000000000000000000000000000000000815260040180806020018281038252601f8152602001807f4e6f2c2070726576696f7573207374616b65206973206465706f73697465640081525060200191505060405180910390fd5b6000600260003373ffffffffffffffffffffffffffffffffffffffff1673ffffffffffffffffffffffffffffffffffffffff1681526020019081526020016000205490506000600360003373ffffffffffffffffffffffffffffffffffffffff1673ffffffffffffffffffffffffffffffffffffffff16815260200190815260200160002054420390506000662386f26fc10000600260003373ffffffffffffffffffffffffffffffffffffffff1673ffffffffffffffffffffffffffffffffffffffff16815260200190815260200160002054026301e187e0029050600082820290503373ffffffffffffffffffffffffffffffffffffffff166108fc859081150290604051600060405180830381858888f19350505050158015610384573d6000803e3d6000fd5b5060008054906101000a900473ffffffffffffffffffffffffffffffffffffffff1673ffffffffffffffffffffffffffffffffffffffff166340c10f1933836040518363ffffffff1660e01b8152600401808373ffffffffffffffffffffffffffffffffffffffff16815260200182815260200192505050600060405180830381600087803b15801561041657600080fd5b505af115801561042a573d6000803e3d6000fd5b505050506000600360003373ffffffffffffffffffffffffffffffffffffffff1673ffffffffffffffffffffffffffffffffffffffff168152602001908152602001600020819055506000600260003373ffffffffffffffffffffffffffffffffffffffff1673ffffffffffffffffffffffffffffffffffffffff168152602001908152602001600020819055506000600160003373ffffffffffffffffffffffffffffffffffffffff1673ffffffffffffffffffffffffffffffffffffffff16815260200190815260200160002060006101000a81548160ff0219169083151502179055503373ffffffffffffffffffffffffffffffffffffffff167f4b7612bd63abc5b2aa20b1b9dfde398ab0b4deb7fe9bed0d16e60ff39345219385858460405180848152602001838152602001828152602001935050505060405180910390a250505050565b60016020528060005260406000206000915054906101000a900460ff1681565b60026020528060005260406000206000915090505481565b60001515600160003373ffffffffffffffffffffffffffffffffffffffff1673ffffffffffffffffffffffffffffffffffffffff16815260200190815260200160002060009054906101000a900460ff16151514610672576040517f08c379a00000000000000000000000000000000000000000000000000000000081526004018080602001828103825260208152602001807f4572726f722c20796f7572205374616b65206163636f756e742061637469766581525060200191505060405180910390fd5b662386f26fc100003410156106d2576040517f08c379a000000000000000000000000000000000000000000000000000000000815260040180806020018281038252602b8152602001806108a4602b913960400191505060405180910390fd5b34600260003373ffffffffffffffffffffffffffffffffffffffff1673ffffffffffffffffffffffffffffffffffffffff1681526020019081526020016000205401600260003373ffffffffffffffffffffffffffffffffffffffff1673ffffffffffffffffffffffffffffffffffffffff1681526020019081526020016000208190555042600360003373ffffffffffffffffffffffffffffffffffffffff1673ffffffffffffffffffffffffffffffffffffffff1681526020019081526020016000205401600360003373ffffffffffffffffffffffffffffffffffffffff1673ffffffffffffffffffffffffffffffffffffffff1681526020019081526020016000208190555060018060003373ffffffffffffffffffffffffffffffffffffffff1673ffffffffffffffffffffffffffffffffffffffff16815260200190815260200160002060006101000a81548160ff0219169083151502179055503373ffffffffffffffffffffffffffffffffffffffff167f892efc473a04635050f7190c3056402272901b77020f1bba0dc123fdf0ed60403442604051808381526020018281526020019250505060405180910390a2565b6003602052806000526040600020600091509050548156fe4c6f772042616c616e6365204572726f722c205374616b65206d757374206265203e3d20302e3120455448a2646970667358221220cdeb29ee73976bec596ec650cb805e8e15a808a51f9f441d2608d770e815620464736f6c63430007060033",
  "immutableReferences": {},
  "source": "// SPDX-License-Identifier: MIT\npragma solidity >=0.6.0 <0.8.0;\n\nimport \"./SGToken.sol\";\n\ncontract SimpleStake {\n\tSGToken private sgtoken;\n\n\t// events\n\tevent StakeDeposit(address indexed user, uint etherAmount, uint timeStart);\n\tevent StakeWithdraw(address indexed user, uint256 etherAmount, uint depositTime, uint interest);\n\n\t// mappings\n\tmapping(address => bool) public isStaked;\n\tmapping(address => uint) public depositBalanceof;\n\tmapping(address => uint) public depositStartFrom;\n\n\n\tconstructor(SGToken _token) public {\n\t\tsgtoken = _token;\n\t}\n\n\tfunction deposit() payable public {\n\t\t// any active stakes\n\t\trequire(isStaked[msg.sender] == false,'Error, your Stake account active');\n\t\t\n\t\t// check minimum stake amount\n\t\trequire(msg.value >= 1e16, \"Low Balance Error, Stake must be >= 0.1 ETH\");\n\n\t\t// user address update stake balance\n\t\tdepositBalanceof[msg.sender] = depositBalanceof[msg.sender] + msg.value;\n\n\t\t// user address update stake start time\n\t\tdepositStartFrom[msg.sender] = depositStartFrom[msg.sender] + block.timestamp;\n\n\t\t// update user stake status\n\t\tisStaked[msg.sender] = true;\n\n\t\t// call the event: for transaction logs\n\t\temit StakeDeposit(msg.sender, msg.value, block.timestamp);\n\t}\n\n\tfunction withdraw() payable public {\n\t\t// check any stakes active or not\n\t\trequire(isStaked[msg.sender] == true, \"No, previous stake is deposited\");\n\t\t\n\t\t// store the user balance in local variable\n\t\tuint userBalance = depositBalanceof[msg.sender];\n\n\t\t// check user hold time\n\t\tuint depositStakedTime = block.timestamp - depositStartFrom[msg.sender];\n\n\t\t// interest calculation\n\t\t// 10% interest for 0.01 eth \n\t\tuint interestPerSecond = 60 * 60 * 24 * 365.25 * (depositBalanceof[msg.sender] * 1e16);\n\t\tuint interest = interestPerSecond * depositStakedTime;\n\n\t\t// send eth to user\n\t\tmsg.sender.transfer(userBalance);\n\t\tsgtoken.mint(msg.sender, interest); // mint interest token for user address\n\n\t\t// reset deposit data\n\t\tdepositStartFrom[msg.sender] = 0;\n\t\tdepositBalanceof[msg.sender] = 0;\n\t\tisStaked[msg.sender] = false;\n\n\t\t// call the event: for transaction logs\n\t\temit StakeWithdraw(msg.sender, userBalance, depositStakedTime, interest);\n\t}\n}",
  "sourcePath": "/home/shiva/Workspace20/blockchain_AZ/defi_stacking_nnt/src/contracts/SimpleStake.sol",
  "compiler": {
    "name": "solc",
    "version": "0.7.6+commit.7338295f.Emscripten.clang"
  },
  "schemaVersion": "3.2.3",
  "updatedAt": "2021-07-18T16:27:11.303Z",
  "networkType": "ethereum",
  "devdoc": {
    "kind": "dev",
    "methods": {},
    "version": 1
  },
  "userdoc": {
    "kind": "user",
    "methods": {},
    "version": 1
  }
}